{
  "contractName": "Commodity",
  "abi": [
    {
      "inputs": [],
      "stateMutability": "nonpayable",
      "type": "constructor"
    },
    {
      "inputs": [],
      "name": "MAX_BALANCE",
      "outputs": [
        {
          "internalType": "uint256",
          "name": "",
          "type": "uint256"
        }
      ],
      "stateMutability": "view",
      "type": "function",
      "constant": true
    },
    {
      "inputs": [
        {
          "internalType": "address",
          "name": "owner",
          "type": "address"
        }
      ],
      "name": "getBalance",
      "outputs": [
        {
          "internalType": "uint256",
          "name": "",
          "type": "uint256"
        }
      ],
      "stateMutability": "view",
      "type": "function",
      "constant": true
    },
    {
      "inputs": [
        {
          "internalType": "address",
          "name": "buyer",
          "type": "address"
        },
        {
          "internalType": "uint256",
          "name": "amount",
          "type": "uint256"
        }
      ],
      "name": "purchase",
      "outputs": [
        {
          "internalType": "bool",
          "name": "sufficient",
          "type": "bool"
        }
      ],
      "stateMutability": "nonpayable",
      "type": "function"
    },
    {
      "inputs": [
        {
          "internalType": "address",
          "name": "seller",
          "type": "address"
        },
        {
          "internalType": "uint256",
          "name": "amount",
          "type": "uint256"
        }
      ],
      "name": "sell",
      "outputs": [
        {
          "internalType": "bool",
          "name": "sufficient",
          "type": "bool"
        }
      ],
      "stateMutability": "nonpayable",
      "type": "function"
    }
  ],
  "bytecode": "0x608060405234801561001057600080fd5b50600080546001600160a01b0319163017815532815260016020526040902061271090556102d4806100436000396000f3fe608060405234801561001057600080fd5b506004361061004c5760003560e01c80636c197ff5146100515780638de9322214610079578063def92c691461008c578063f8b2cb4f146100a3575b600080fd5b61006461005f36600461022f565b6100cc565b60405190151581526020015b60405180910390f35b61006461008736600461022f565b610186565b61009561271081565b604051908152602001610070565b6100956100b136600461020d565b6001600160a01b031660009081526001602052604090205490565b6001600160a01b0382166000908152600160205260408120546100ef8382610271565b10156100fd57506000610180565b6001600160a01b03831660009081526001602052604081208054849290610125908490610271565b90915550506001600160a01b03831660009081526001602052604081208054849290610152908490610271565b90915550503360009081526001602052604081208054849290610176908490610259565b9091555060019150505b92915050565b336000908152600160205260408120548211156101a557506000610180565b33600090815260016020526040812080548492906101c4908490610271565b90915550506001600160a01b03831660009081526001602052604081208054849290610176908490610259565b80356001600160a01b038116811461020857600080fd5b919050565b60006020828403121561021f57600080fd5b610228826101f1565b9392505050565b6000806040838503121561024257600080fd5b61024b836101f1565b946020939093013593505050565b6000821982111561026c5761026c610288565b500190565b60008282101561028357610283610288565b500390565b634e487b7160e01b600052601160045260246000fdfea26469706673582212203d4c61ac5366101dffc0cba1b0207513715e4a4d80d209a5e5acf0b8222dddf764736f6c63430008070033",
  "immutableReferences": {},
  "source": "// SPDX-License-Identifier: MIT\n\npragma solidity ^0.8.7;\n\ncontract Commodity {\n    uint public constant MAX_BALANCE = 10000;\n\n    address private deployed;\n    mapping (address => uint) balances;\n\n    constructor() public {\n      deployed = address(this);\n      balances[tx.origin] = MAX_BALANCE;\n    }\n\n    function getBalance(address owner) public view returns(uint) {\n      return balances[owner];\n    }\n\n    function purchase(address buyer, uint amount) public returns(bool sufficient) {\n      if (balances[msg.sender] < amount) return false;\n      balances[msg.sender] -= amount;\n\n      balances[buyer] += amount;\n      return true;\n    }\n\n    function sell(address seller, uint amount) public returns(bool sufficient) {\n      if (balances[seller] - amount < balances[seller]) return false;\n      balances[seller] -= amount;\n\n      balances[seller] -= amount;\n      balances[msg.sender] += amount;\n\n      return true;\n    }\n}\n",
  "sourcePath": "/Users/jrg5/src/github.com/jrgriffiniii/workspace1/drizzle-tutorials/contracts/Commodity.sol",
  "compiler": {
    "name": "solc",
    "version": "0.8.7+commit.e28d00a7.Emscripten.clang"
  },
  "schemaVersion": "3.4.3",
  "updatedAt": "2022-01-15T23:49:29.252Z",
  "networkType": "ethereum",
  "devdoc": {
    "kind": "dev",
    "methods": {},
    "version": 1
  },
  "userdoc": {
    "kind": "user",
    "methods": {},
    "version": 1
  }
}