{
  "contractName": "Commodity",
  "abi": [
    {
      "inputs": [
        {
          "internalType": "string",
          "name": "_name",
          "type": "string"
        }
      ],
      "stateMutability": "nonpayable",
      "type": "constructor"
    },
    {
      "inputs": [],
      "name": "MAX_BALANCE",
      "outputs": [
        {
          "internalType": "uint256",
          "name": "",
          "type": "uint256"
        }
      ],
      "stateMutability": "view",
      "type": "function",
      "constant": true
    },
    {
      "inputs": [],
      "name": "name",
      "outputs": [
        {
          "internalType": "string",
          "name": "",
          "type": "string"
        }
      ],
      "stateMutability": "view",
      "type": "function",
      "constant": true
    },
    {
      "inputs": [
        {
          "internalType": "address",
          "name": "owner",
          "type": "address"
        }
      ],
      "name": "getBalance",
      "outputs": [
        {
          "internalType": "uint256",
          "name": "",
          "type": "uint256"
        }
      ],
      "stateMutability": "view",
      "type": "function",
      "constant": true
    },
    {
      "inputs": [
        {
          "internalType": "address",
          "name": "buyer",
          "type": "address"
        },
        {
          "internalType": "uint256",
          "name": "amount",
          "type": "uint256"
        }
      ],
      "name": "purchase",
      "outputs": [
        {
          "internalType": "bool",
          "name": "sufficient",
          "type": "bool"
        }
      ],
      "stateMutability": "nonpayable",
      "type": "function"
    },
    {
      "inputs": [
        {
          "internalType": "address",
          "name": "seller",
          "type": "address"
        },
        {
          "internalType": "uint256",
          "name": "amount",
          "type": "uint256"
        }
      ],
      "name": "sell",
      "outputs": [
        {
          "internalType": "bool",
          "name": "sufficient",
          "type": "bool"
        }
      ],
      "stateMutability": "nonpayable",
      "type": "function"
    }
  ],
  "bytecode": "0x608060405234801561001057600080fd5b5060405161063b38038061063b83398101604081905261002f916100f6565b805161004290600190602084019061005d565b50503260009081526020819052604090206127109055610216565b828054610069906101c5565b90600052602060002090601f01602090048101928261008b57600085556100d1565b82601f106100a457805160ff19168380011785556100d1565b828001600101855582156100d1579182015b828111156100d15782518255916020019190600101906100b6565b506100dd9291506100e1565b5090565b5b808211156100dd57600081556001016100e2565b6000602080838503121561010957600080fd5b82516001600160401b038082111561012057600080fd5b818501915085601f83011261013457600080fd5b81518181111561014657610146610200565b604051601f8201601f19908116603f0116810190838211818310171561016e5761016e610200565b81604052828152888684870101111561018657600080fd5b600093505b828410156101a8578484018601518185018701529285019261018b565b828411156101b95760008684830101525b98975050505050505050565b600181811c908216806101d957607f821691505b602082108114156101fa57634e487b7160e01b600052602260045260246000fd5b50919050565b634e487b7160e01b600052604160045260246000fd5b610416806102256000396000f3fe608060405234801561001057600080fd5b50600436106100575760003560e01c806306fdde031461005c5780636c197ff51461007a5780638de932221461009d578063def92c69146100b0578063f8b2cb4f146100c7575b600080fd5b6100646100f0565b604051610071919061030b565b60405180910390f35b61008d6100883660046102e1565b61017e565b6040519015158152602001610071565b61008d6100ab3660046102e1565b610238565b6100b961271081565b604051908152602001610071565b6100b96100d53660046102bf565b6001600160a01b031660009081526020819052604090205490565b600180546100fd9061038f565b80601f01602080910402602001604051908101604052809291908181526020018280546101299061038f565b80156101765780601f1061014b57610100808354040283529160200191610176565b820191906000526020600020905b81548152906001019060200180831161015957829003601f168201915b505050505081565b6001600160a01b0382166000908152602081905260408120546101a18382610378565b10156101af57506000610232565b6001600160a01b038316600090815260208190526040812080548492906101d7908490610378565b90915550506001600160a01b03831660009081526020819052604081208054849290610204908490610378565b90915550503360009081526020819052604081208054849290610228908490610360565b9091555060019150505b92915050565b3360009081526020819052604081205482111561025757506000610232565b3360009081526020819052604081208054849290610276908490610378565b90915550506001600160a01b03831660009081526020819052604081208054849290610228908490610360565b80356001600160a01b03811681146102ba57600080fd5b919050565b6000602082840312156102d157600080fd5b6102da826102a3565b9392505050565b600080604083850312156102f457600080fd5b6102fd836102a3565b946020939093013593505050565b600060208083528351808285015260005b818110156103385785810183015185820160400152820161031c565b8181111561034a576000604083870101525b50601f01601f1916929092016040019392505050565b60008219821115610373576103736103ca565b500190565b60008282101561038a5761038a6103ca565b500390565b600181811c908216806103a357607f821691505b602082108114156103c457634e487b7160e01b600052602260045260246000fd5b50919050565b634e487b7160e01b600052601160045260246000fdfea264697066735822122003ececfa0d5aa3ef62d237bcfe406f386bfc1fe9110f4a06b12a1de70fe6ba7764736f6c63430008070033",
  "immutableReferences": {},
  "source": "// SPDX-License-Identifier: MIT\n\npragma solidity ^0.8.7;\n\ncontract Commodity {\n    uint public constant MAX_BALANCE = 10000;\n\n    mapping (address => uint) balances;\n    string public name;\n\n    constructor(string memory _name) public {\n      name = _name;\n\n      balances[tx.origin] = MAX_BALANCE;\n    }\n\n    function getBalance(address owner) public view returns(uint) {\n      return balances[owner];\n    }\n\n    function purchase(address buyer, uint amount) public returns(bool sufficient) {\n      if (balances[msg.sender] < amount) return false;\n      balances[msg.sender] -= amount;\n\n      balances[buyer] += amount;\n      return true;\n    }\n\n    function sell(address seller, uint amount) public returns(bool sufficient) {\n      if (balances[seller] - amount < balances[seller]) return false;\n      balances[seller] -= amount;\n\n      balances[seller] -= amount;\n      balances[msg.sender] += amount;\n\n      return true;\n    }\n}\n",
  "sourcePath": "/Users/jrg5/src/github.com/jrgriffiniii/workspace1/drizzle-tutorials/contracts/Commodity.sol",
  "compiler": {
    "name": "solc",
    "version": "0.8.7+commit.e28d00a7.Emscripten.clang"
  },
  "schemaVersion": "3.4.3",
  "updatedAt": "2022-01-08T06:23:03.426Z",
  "networkType": "ethereum",
  "devdoc": {
    "kind": "dev",
    "methods": {},
    "version": 1
  },
  "userdoc": {
    "kind": "user",
    "methods": {},
    "version": 1
  }
}