{
  "contractName": "Commodity",
  "abi": [
    {
      "inputs": [
        {
          "internalType": "string",
          "name": "_name",
          "type": "string"
        }
      ],
      "stateMutability": "nonpayable",
      "type": "constructor"
    },
    {
      "inputs": [],
      "name": "MAX_BALANCE",
      "outputs": [
        {
          "internalType": "uint256",
          "name": "",
          "type": "uint256"
        }
      ],
      "stateMutability": "view",
      "type": "function",
      "constant": true
    },
    {
      "inputs": [],
      "name": "name",
      "outputs": [
        {
          "internalType": "string",
          "name": "",
          "type": "string"
        }
      ],
      "stateMutability": "view",
      "type": "function",
      "constant": true
    },
    {
      "inputs": [
        {
          "internalType": "address",
          "name": "owner",
          "type": "address"
        }
      ],
      "name": "getBalance",
      "outputs": [
        {
          "internalType": "uint256",
          "name": "",
          "type": "uint256"
        }
      ],
      "stateMutability": "view",
      "type": "function",
      "constant": true
    },
    {
      "inputs": [
        {
          "internalType": "address",
          "name": "buyer",
          "type": "address"
        },
        {
          "internalType": "uint256",
          "name": "amount",
          "type": "uint256"
        }
      ],
      "name": "sell",
      "outputs": [
        {
          "internalType": "bool",
          "name": "sufficient",
          "type": "bool"
        }
      ],
      "stateMutability": "nonpayable",
      "type": "function"
    }
  ],
  "bytecode": "0x608060405234801561001057600080fd5b5060405161057338038061057383398101604081905261002f916100f6565b805161004290600190602084019061005d565b50503260009081526020819052604090206103e89055610216565b828054610069906101c5565b90600052602060002090601f01602090048101928261008b57600085556100d1565b82601f106100a457805160ff19168380011785556100d1565b828001600101855582156100d1579182015b828111156100d15782518255916020019190600101906100b6565b506100dd9291506100e1565b5090565b5b808211156100dd57600081556001016100e2565b6000602080838503121561010957600080fd5b82516001600160401b038082111561012057600080fd5b818501915085601f83011261013457600080fd5b81518181111561014657610146610200565b604051601f8201601f19908116603f0116810190838211818310171561016e5761016e610200565b81604052828152888684870101111561018657600080fd5b600093505b828410156101a8578484018601518185018701529285019261018b565b828411156101b95760008684830101525b98975050505050505050565b600181811c908216806101d957607f821691505b602082108114156101fa57634e487b7160e01b600052602260045260246000fd5b50919050565b634e487b7160e01b600052604160045260246000fd5b61034e806102256000396000f3fe608060405234801561001057600080fd5b506004361061004c5760003560e01c806306fdde03146100515780636c197ff51461006f578063def92c6914610092578063f8b2cb4f146100a9575b600080fd5b6100596100d2565b6040516100669190610243565b60405180910390f35b61008261007d366004610219565b610160565b6040519015158152602001610066565b61009b6103e881565b604051908152602001610066565b61009b6100b73660046101f7565b6001600160a01b031660009081526020819052604090205490565b600180546100df906102c7565b80601f016020809104026020016040519081016040528092919081815260200182805461010b906102c7565b80156101585780601f1061012d57610100808354040283529160200191610158565b820191906000526020600020905b81548152906001019060200180831161013b57829003601f168201915b505050505081565b3360009081526020819052604081205482111561017f575060006101d5565b336000908152602081905260408120805484929061019e9084906102b0565b90915550506001600160a01b038316600090815260208190526040812080548492906101cb908490610298565b9091555060019150505b92915050565b80356001600160a01b03811681146101f257600080fd5b919050565b60006020828403121561020957600080fd5b610212826101db565b9392505050565b6000806040838503121561022c57600080fd5b610235836101db565b946020939093013593505050565b600060208083528351808285015260005b8181101561027057858101830151858201604001528201610254565b81811115610282576000604083870101525b50601f01601f1916929092016040019392505050565b600082198211156102ab576102ab610302565b500190565b6000828210156102c2576102c2610302565b500390565b600181811c908216806102db57607f821691505b602082108114156102fc57634e487b7160e01b600052602260045260246000fd5b50919050565b634e487b7160e01b600052601160045260246000fdfea2646970667358221220588e81ea6d5768d581a1e8eba2fdf42e81de7292437c233a3c61fbd039a45acd64736f6c63430008070033",
  "immutableReferences": {},
  "source": "// SPDX-License-Identifier: MIT\n\npragma solidity ^0.8.7;\n\ncontract Commodity {\n    uint public constant MAX_BALANCE = 1000;\n\n    mapping (address => uint) balances;\n    string public name;\n\n    constructor(string memory _name) public {\n      name = _name;\n\n      balances[tx.origin] = MAX_BALANCE;\n    }\n\n    function getBalance(address owner) public view returns(uint) {\n      return balances[owner];\n    }\n\n    function sell(address buyer, uint amount) public returns(bool sufficient) {\n      if (balances[msg.sender] < amount) return false;\n      balances[msg.sender] -= amount;\n\n      balances[buyer] += amount;\n      return true;\n    }\n}\n",
  "sourcePath": "/Users/jrg5/src/github.com/jrgriffiniii/workspace1/drizzle-tutorials/contracts/Commodity.sol",
  "compiler": {
    "name": "solc",
    "version": "0.8.7+commit.e28d00a7.Emscripten.clang"
  },
  "schemaVersion": "3.4.3",
  "updatedAt": "2022-01-08T00:38:49.646Z",
  "networkType": "ethereum",
  "devdoc": {
    "kind": "dev",
    "methods": {},
    "version": 1
  },
  "userdoc": {
    "kind": "user",
    "methods": {},
    "version": 1
  }
}