{
  "contractName": "CommodityContract",
  "abi": [
    {
      "inputs": [],
      "stateMutability": "nonpayable",
      "type": "constructor"
    },
    {
      "anonymous": false,
      "inputs": [
        {
          "indexed": false,
          "internalType": "address",
          "name": "",
          "type": "address"
        },
        {
          "indexed": false,
          "internalType": "uint256",
          "name": "",
          "type": "uint256"
        }
      ],
      "name": "Fallback",
      "type": "event"
    },
    {
      "anonymous": false,
      "inputs": [
        {
          "indexed": false,
          "internalType": "address",
          "name": "",
          "type": "address"
        },
        {
          "indexed": false,
          "internalType": "uint256",
          "name": "",
          "type": "uint256"
        }
      ],
      "name": "Received",
      "type": "event"
    },
    {
      "stateMutability": "payable",
      "type": "fallback",
      "payable": true
    },
    {
      "inputs": [],
      "name": "MAX_BALANCE",
      "outputs": [
        {
          "internalType": "uint256",
          "name": "",
          "type": "uint256"
        }
      ],
      "stateMutability": "view",
      "type": "function",
      "constant": true
    },
    {
      "stateMutability": "payable",
      "type": "receive",
      "payable": true
    },
    {
      "inputs": [],
      "name": "getDeposited",
      "outputs": [
        {
          "internalType": "uint256",
          "name": "",
          "type": "uint256"
        }
      ],
      "stateMutability": "view",
      "type": "function",
      "constant": true
    },
    {
      "inputs": [],
      "name": "getSupply",
      "outputs": [
        {
          "internalType": "uint256",
          "name": "",
          "type": "uint256"
        }
      ],
      "stateMutability": "view",
      "type": "function",
      "constant": true
    },
    {
      "inputs": [
        {
          "internalType": "address",
          "name": "owner",
          "type": "address"
        }
      ],
      "name": "getBalance",
      "outputs": [
        {
          "internalType": "uint256",
          "name": "",
          "type": "uint256"
        }
      ],
      "stateMutability": "view",
      "type": "function",
      "constant": true
    },
    {
      "inputs": [],
      "name": "purchase",
      "outputs": [],
      "stateMutability": "payable",
      "type": "function",
      "payable": true
    },
    {
      "inputs": [],
      "name": "sell",
      "outputs": [],
      "stateMutability": "payable",
      "type": "function",
      "payable": true
    }
  ],
  "bytecode": "0x608060405234801561001057600080fd5b50600080546001600160a01b03191630908117825581526001602052604090206103e890556102d8806100446000396000f3fe6080604052600436106100595760003560e01c80631387c4fd146100ce57806345710074146100fb57806364edfbf0146101055780636c9c2faf1461010d578063def92c6914610138578063f8b2cb4f1461014e57610099565b3661009957604080513381523460208201527f88a5966d370b9919b20f3e2c13ff65706f196a4e32cc2c12bf57088f8852587491015b60405180910390a1005b604080513381523460208201527ffbf15a1bae5e021d024841007b692b167afd2a281a4ff0b44f47387eb388205c910161008f565b3480156100da57600080fd5b506000546001600160a01b0316315b60405190815260200160405180910390f35b610103610184565b005b6101036101db565b34801561011957600080fd5b50600080546001600160a01b03168152600160205260409020546100e9565b34801561014457600080fd5b506100e96103e881565b34801561015a57600080fd5b506100e961016936600461022d565b6001600160a01b031660009081526001602052604090205490565b336000818152600160205260408120805434928392916101a5908490610275565b9091555050600080546001600160a01b0316815260016020526040812080548392906101d290849061025d565b90915550505050565b600080546001600160a01b031680825260016020526040822080549192349283929190610209908490610275565b909155505033600090815260016020526040812080548392906101d290849061025d565b60006020828403121561023f57600080fd5b81356001600160a01b038116811461025657600080fd5b9392505050565b600082198211156102705761027061028c565b500190565b6000828210156102875761028761028c565b500390565b634e487b7160e01b600052601160045260246000fdfea2646970667358221220ef7caf79be247ada11bc592f6f92bf758bb0338416d9e621d371f54a406ae20564736f6c63430008070033",
  "immutableReferences": {},
  "source": "// SPDX-License-Identifier: MIT\n\npragma solidity ^0.8.7;\n\ncontract CommodityContract {\n    uint256 public constant MAX_BALANCE = 1000;\n\n    address private deployed;\n    mapping(address => uint256) balances;\n    /*\n    uint256 public months;\n    uint256 public bid_price;\n    uint256 public ask_price;\n    */\n\n    event Received(address, uint256);\n    event Fallback(address, uint256);\n\n    constructor() public {\n        deployed = address(this);\n        balances[deployed] = MAX_BALANCE;\n    }\n\n    receive() external payable {\n        emit Received(msg.sender, msg.value);\n    }\n\n    fallback() external payable {\n        emit Fallback(msg.sender, msg.value);\n    }\n\n    function getDeposited() external view returns (uint256) {\n        return deployed.balance;\n    }\n\n    function getSupply() external view returns (uint256) {\n        return balances[deployed];\n    }\n\n    function getBalance(address owner) external view returns (uint256) {\n        return balances[owner];\n    }\n\n    function purchase() external payable {\n        address payable seller = payable(deployed);\n        uint256 amount = msg.value;\n\n        // This must be denominated in Wei\n        balances[deployed] -= amount;\n        balances[msg.sender] += amount;\n    }\n\n    function sell() external payable {\n        address payable seller = payable(msg.sender);\n        uint256 amount = msg.value;\n\n        balances[msg.sender] -= amount;\n        balances[deployed] += amount;\n    }\n}\n",
  "sourcePath": "/Users/jrg5/src/github.com/jrgriffiniii/workspace1/drizzle-tutorials/contracts/CommodityContract.sol",
  "compiler": {
    "name": "solc",
    "version": "0.8.7+commit.e28d00a7.Emscripten.clang"
  },
  "schemaVersion": "3.4.3",
  "updatedAt": "2022-01-19T21:52:42.927Z",
  "networkType": "ethereum",
  "devdoc": {
    "kind": "dev",
    "methods": {},
    "version": 1
  },
  "userdoc": {
    "kind": "user",
    "methods": {},
    "version": 1
  }
}