{
  "contractName": "CornContract",
  "abi": [
    {
      "inputs": [
        {
          "internalType": "string[]",
          "name": "_months",
          "type": "string[]"
        }
      ],
      "stateMutability": "nonpayable",
      "type": "constructor"
    },
    {
      "anonymous": false,
      "inputs": [
        {
          "indexed": false,
          "internalType": "address",
          "name": "",
          "type": "address"
        },
        {
          "indexed": false,
          "internalType": "string",
          "name": "",
          "type": "string"
        },
        {
          "indexed": false,
          "internalType": "uint256",
          "name": "",
          "type": "uint256"
        }
      ],
      "name": "Buy",
      "type": "event"
    },
    {
      "anonymous": false,
      "inputs": [
        {
          "indexed": false,
          "internalType": "address",
          "name": "",
          "type": "address"
        },
        {
          "indexed": false,
          "internalType": "uint256",
          "name": "",
          "type": "uint256"
        }
      ],
      "name": "Fallback",
      "type": "event"
    },
    {
      "anonymous": false,
      "inputs": [
        {
          "indexed": false,
          "internalType": "address",
          "name": "",
          "type": "address"
        },
        {
          "indexed": false,
          "internalType": "uint256",
          "name": "",
          "type": "uint256"
        }
      ],
      "name": "Received",
      "type": "event"
    },
    {
      "anonymous": false,
      "inputs": [
        {
          "indexed": false,
          "internalType": "address",
          "name": "",
          "type": "address"
        },
        {
          "indexed": false,
          "internalType": "string",
          "name": "",
          "type": "string"
        },
        {
          "indexed": false,
          "internalType": "uint256",
          "name": "",
          "type": "uint256"
        }
      ],
      "name": "Sell",
      "type": "event"
    },
    {
      "stateMutability": "payable",
      "type": "fallback"
    },
    {
      "inputs": [],
      "name": "MAX_BALANCE",
      "outputs": [
        {
          "internalType": "uint256",
          "name": "",
          "type": "uint256"
        }
      ],
      "stateMutability": "view",
      "type": "function"
    },
    {
      "inputs": [
        {
          "internalType": "address",
          "name": "seller",
          "type": "address"
        },
        {
          "internalType": "string",
          "name": "month",
          "type": "string"
        }
      ],
      "name": "buy",
      "outputs": [],
      "stateMutability": "payable",
      "type": "function"
    },
    {
      "inputs": [
        {
          "internalType": "address",
          "name": "owner",
          "type": "address"
        },
        {
          "internalType": "string",
          "name": "month",
          "type": "string"
        }
      ],
      "name": "getBalance",
      "outputs": [
        {
          "internalType": "uint256",
          "name": "",
          "type": "uint256"
        }
      ],
      "stateMutability": "view",
      "type": "function"
    },
    {
      "inputs": [],
      "name": "getDeposited",
      "outputs": [
        {
          "internalType": "uint256",
          "name": "",
          "type": "uint256"
        }
      ],
      "stateMutability": "view",
      "type": "function"
    },
    {
      "inputs": [],
      "name": "getMonths",
      "outputs": [
        {
          "internalType": "string[]",
          "name": "",
          "type": "string[]"
        }
      ],
      "stateMutability": "view",
      "type": "function"
    },
    {
      "inputs": [
        {
          "internalType": "address",
          "name": "owner",
          "type": "address"
        }
      ],
      "name": "getTotalBalance",
      "outputs": [
        {
          "internalType": "uint256",
          "name": "",
          "type": "uint256"
        }
      ],
      "stateMutability": "view",
      "type": "function"
    },
    {
      "inputs": [],
      "name": "getTotalSupply",
      "outputs": [
        {
          "internalType": "uint256",
          "name": "",
          "type": "uint256"
        }
      ],
      "stateMutability": "view",
      "type": "function"
    },
    {
      "inputs": [
        {
          "internalType": "uint256",
          "name": "",
          "type": "uint256"
        }
      ],
      "name": "months",
      "outputs": [
        {
          "internalType": "string",
          "name": "",
          "type": "string"
        }
      ],
      "stateMutability": "view",
      "type": "function"
    },
    {
      "inputs": [
        {
          "internalType": "address",
          "name": "buyer",
          "type": "address"
        },
        {
          "internalType": "string",
          "name": "month",
          "type": "string"
        }
      ],
      "name": "sell",
      "outputs": [],
      "stateMutability": "payable",
      "type": "function"
    },
    {
      "stateMutability": "payable",
      "type": "receive"
    },
    {
      "inputs": [
        {
          "internalType": "string",
          "name": "month",
          "type": "string"
        }
      ],
      "name": "getBidPrice",
      "outputs": [
        {
          "internalType": "uint256",
          "name": "",
          "type": "uint256"
        }
      ],
      "stateMutability": "view",
      "type": "function"
    },
    {
      "inputs": [
        {
          "internalType": "string",
          "name": "month",
          "type": "string"
        }
      ],
      "name": "getAskPrice",
      "outputs": [
        {
          "internalType": "uint256",
          "name": "",
          "type": "uint256"
        }
      ],
      "stateMutability": "view",
      "type": "function"
    }
  ],
  "bytecode": "0x60806040523480156200001157600080fd5b50604051620010cd380380620010cd83398101604081905262000034916200024b565b600080546001600160a01b03191630179055805181906200005d906001906020840190620000e2565b5060005b600154811015620000d957600080546001600160a01b0316815260026020526040812060018054849081106200009b576200009b620004d8565b90600052602060002001604051620000b491906200039a565b9081526040519081900360200190205580620000d081620004ae565b91505062000061565b50505062000504565b82805482825590600052602060002090810192821562000134579160200282015b828111156200013457825180516200012391849160209091019062000146565b509160200191906001019062000103565b5062000142929150620001d1565b5090565b828054620001549062000471565b90600052602060002090601f016020900481019282620001785760008555620001c3565b82601f106200019357805160ff1916838001178555620001c3565b82800160010185558215620001c3579182015b82811115620001c3578251825591602001919060010190620001a6565b5062000142929150620001f2565b8082111562000142576000620001e8828262000209565b50600101620001d1565b5b80821115620001425760008155600101620001f3565b508054620002179062000471565b6000825580601f1062000228575050565b601f016020900490600052602060002090810190620002489190620001f2565b50565b600060208083850312156200025f57600080fd5b82516001600160401b03808211156200027757600080fd5b8185019150601f86818401126200028d57600080fd5b825182811115620002a257620002a2620004ee565b8060051b620002b38682016200043e565b8281528681019086880183880189018c1015620002cf57600080fd5b600093505b848410156200038b57805187811115620002ed57600080fd5b8801603f81018d13620002ff57600080fd5b8981015188811115620003165762000316620004ee565b62000329818901601f19168c016200043e565b81815260408f818486010111156200034057600080fd5b60005b8381101562000360578481018201518382018f01528d0162000343565b83811115620003725760008e85850101525b50508552505060019390930192918801918801620002d4565b509a9950505050505050505050565b600080835481600182811c915080831680620003b757607f831692505b6020808410821415620003d857634e487b7160e01b86526022600452602486fd5b818015620003ef5760018114620004015762000430565b60ff1986168952848901965062000430565b60008a81526020902060005b86811015620004285781548b8201529085019083016200040d565b505084890196505b509498975050505050505050565b604051601f8201601f191681016001600160401b0381118282101715620004695762000469620004ee565b604052919050565b600181811c908216806200048657607f821691505b60208210811415620004a857634e487b7160e01b600052602260045260246000fd5b50919050565b6000600019821415620004d157634e487b7160e01b600052601160045260246000fd5b5060010190565b634e487b7160e01b600052603260045260246000fd5b634e487b7160e01b600052604160045260246000fd5b610bb980620005146000396000f3fe6080604052600436106100a05760003560e01c80636ba02d98116100645780636ba02d981461019057806383451838146101c55780639b4f19c6146101d8578063c4e41b22146101fa578063d3d381931461020f578063def92c691461022f576100e0565b80631387c4fd146101155780631d0205b8146101435780631dd7cecf146101705780633712265814610190578063655f272e146101b0576100e0565b366100e057604080513381523460208201527f88a5966d370b9919b20f3e2c13ff65706f196a4e32cc2c12bf57088f8852587491015b60405180910390a1005b604080513381523460208201527ffbf15a1bae5e021d024841007b692b167afd2a281a4ff0b44f47387eb388205c91016100d6565b34801561012157600080fd5b506000546001600160a01b0316315b6040519081526020015b60405180910390f35b34801561014f57600080fd5b5061016361015e3660046108ec565b610245565b60405161013a9190610a7f565b34801561017c57600080fd5b5061013061018b366004610861565b6102f1565b34801561019c57600080fd5b506101306101ab3660046108af565b610333565b6101c36101be366004610861565b61035d565b005b6101c36101d3366004610861565b61048d565b3480156101e457600080fd5b506101ed6105b0565b60405161013a9190610a1d565b34801561020657600080fd5b50610130610689565b34801561021b57600080fd5b5061013061022a36600461083f565b61070f565b34801561023b57600080fd5b506101306103e881565b6001818154811061025557600080fd5b90600052602060002001600091509050805461027090610af1565b80601f016020809104026020016040519081016040528092919081815260200182805461029c90610af1565b80156102e95780601f106102be576101008083540402835291602001916102e9565b820191906000526020600020905b8154815290600101906020018083116102cc57829003601f168201915b505050505081565b6001600160a01b038216600090815260026020526040808220905182919061031a908590610931565b9081526040519081900360200190205491505092915050565b6000806003836040516103469190610931565b908152604051908190036020019020549392505050565b6001600160a01b03821660009081526002602052604090819020905134918291610388908590610931565b908152602001604051809103902060008282546103a59190610a92565b9091555050336000908152600260205260409081902090518291906103cb908590610931565b908152602001604051809103902060008282546103e89190610aaa565b92505081905550806003836040516104009190610931565b9081526020016040518091039020819055507f1160f7e42acc25ce40a0499151736a0092c23685ef042576f568bd2435a11a36838383604051610445939291906109e9565b60405180910390a17f28c98ff494d4e695c77ed00d69e6e677f8920876e0c531a79ad88c2a505cb2bf338383604051610480939291906109e9565b60405180910390a1505050565b6001600160a01b038216600090815260026020526040908190209051349182916104b8908590610931565b908152602001604051809103902060008282546104d59190610aaa565b9091555050336000908152600260205260409081902090518291906104fb908590610931565b908152602001604051809103902060008282546105189190610a92565b92505081905550806004836040516105309190610931565b9081526020016040518091039020819055507f1160f7e42acc25ce40a0499151736a0092c23685ef042576f568bd2435a11a36338383604051610575939291906109e9565b60405180910390a17f28c98ff494d4e695c77ed00d69e6e677f8920876e0c531a79ad88c2a505cb2bf838383604051610480939291906109e9565b60606001805480602002602001604051908101604052809291908181526020016000905b828210156106805783829060005260206000200180546105f390610af1565b80601f016020809104026020016040519081016040528092919081815260200182805461061f90610af1565b801561066c5780601f106106415761010080835404028352916020019161066c565b820191906000526020600020905b81548152906001019060200180831161064f57829003601f168201915b5050505050815260200190600101906105d4565b50505050905090565b600080805b60015481101561070957600080546001600160a01b0316815260026020526040902060018054839081106106c4576106c4610b57565b906000526020600020016040516106db919061094d565b908152602001604051809103902054826106f59190610a92565b91508061070181610b26565b91505061068e565b50919050565b600080805b60015481101561078f576001600160a01b0384166000908152600260205260409020600180548390811061074a5761074a610b57565b90600052602060002001604051610761919061094d565b9081526020016040518091039020548261077b9190610a92565b91508061078781610b26565b915050610714565b5092915050565b80356001600160a01b03811681146107ad57600080fd5b919050565b600082601f8301126107c357600080fd5b813567ffffffffffffffff808211156107de576107de610b6d565b604051601f8301601f19908116603f0116810190828211818310171561080657610806610b6d565b8160405283815286602085880101111561081f57600080fd5b836020870160208301376000602085830101528094505050505092915050565b60006020828403121561085157600080fd5b61085a82610796565b9392505050565b6000806040838503121561087457600080fd5b61087d83610796565b9150602083013567ffffffffffffffff81111561089957600080fd5b6108a5858286016107b2565b9150509250929050565b6000602082840312156108c157600080fd5b813567ffffffffffffffff8111156108d857600080fd5b6108e4848285016107b2565b949350505050565b6000602082840312156108fe57600080fd5b5035919050565b6000815180845261091d816020860160208601610ac1565b601f01601f19169290920160200192915050565b60008251610943818460208701610ac1565b9190910192915050565b600080835481600182811c91508083168061096957607f831692505b602080841082141561098957634e487b7160e01b86526022600452602486fd5b81801561099d57600181146109ae576109db565b60ff198616895284890196506109db565b60008a81526020902060005b868110156109d35781548b8201529085019083016109ba565b505084890196505b509498975050505050505050565b6001600160a01b0384168152606060208201819052600090610a0d90830185610905565b9050826040830152949350505050565b6000602080830181845280855180835260408601915060408160051b870101925083870160005b82811015610a7257603f19888603018452610a60858351610905565b94509285019290850190600101610a44565b5092979650505050505050565b60208152600061085a6020830184610905565b60008219821115610aa557610aa5610b41565b500190565b600082821015610abc57610abc610b41565b500390565b60005b83811015610adc578181015183820152602001610ac4565b83811115610aeb576000848401525b50505050565b600181811c90821680610b0557607f821691505b6020821081141561070957634e487b7160e01b600052602260045260246000fd5b6000600019821415610b3a57610b3a610b41565b5060010190565b634e487b7160e01b600052601160045260246000fd5b634e487b7160e01b600052603260045260246000fd5b634e487b7160e01b600052604160045260246000fdfea2646970667358221220e207387b5b63391c6756c129609b3cde22979e49fd618f39455bd625420ecfc964736f6c63430008070033",
  "immutableReferences": {},
  "source": "// SPDX-License-Identifier: MIT\n\npragma solidity ^0.8.7;\n\nimport \"../contracts/CommodityContract.sol\";\n\ncontract CornContract is CommodityContract {\n    constructor(string[] memory _months) CommodityContract(_months) {}\n\n    function getBidPrice(string memory month) external view returns (uint256) {\n      uint256 _price = bidPrices[month];\n\n      return _price;\n    }\n\n    function getAskPrice(string memory month) external view returns (uint256) {\n      uint256 _price = bidPrices[month];\n\n      return _price;\n    }\n}\n\n/*\ncontract CornContract is VRFConsumerBase, CommodityContract {\n\n  bytes32 private s_keyHash;\n  uint256 private s_fee;\n  mapping(bytes32 => address) private s_rollers;\n  mapping(address => uint256) private s_results;\n\n  // constructor\n  constructor(address vrfCoordinator, address link, bytes32 keyHash, uint256 fee)\n    public\n    VRFConsumerBase(vrfCoordinator, link)\n  {\n    s_keyHash = keyHash;\n    s_fee = fee;\n  }\n\n  // Get Price\n  function rollDice(address roller) public onlyOwner returns (bytes32 requestId) {\n    // checking LINK balance\n    require(LINK.balanceOf(address(this)) >= s_fee, \"Not enough LINK to pay fee\");\n\n    // checking if roller has already rolled die\n    require(s_results[roller] == 0, \"Already rolled\");\n\n    // requesting randomness\n    requestId = requestRandomness(s_keyHash, s_fee);\n\n    // storing requestId and roller address\n    s_rollers[requestId] = roller;\n\n    // emitting event to signal rolling of die\n    s_results[roller] = ROLL_IN_PROGRESS;\n    emit DiceRolled(requestId, roller);\n  }\n\n  function fulfillRandomness(bytes32 requestId, uint256 randomness) internal override {\n    uint256 d20Value = randomness.mod(20).add(1);\n    s_results[s_rollers[requestId]] = d20Value;\n    emit DiceLanded(requestId, d20Value);\n  }\n\n  function house(address player) public view returns (string memory) {\n    require(s_results[player] != 0, \"Dice not rolled\");\n    require(s_results[player] != ROLL_IN_PROGRESS, \"Roll in progress\");\n    return getHouseName(s_results[player]);\n  }\n}\n*/\n",
  "sourcePath": "/Users/jrg5/src/github.com/jrgriffiniii/workspace1/drizzle-tutorials/contracts/CornContract.sol",
  "compiler": {
    "name": "solc",
    "version": "0.8.7+commit.e28d00a7.Emscripten.clang"
  },
  "schemaVersion": "3.4.3",
  "updatedAt": "2022-01-20T14:43:57.712Z",
  "devdoc": {
    "kind": "dev",
    "methods": {},
    "version": 1
  },
  "userdoc": {
    "kind": "user",
    "methods": {},
    "version": 1
  }
}