{
  "contractName": "CornContract",
  "abi": [
    {
      "inputs": [
        {
          "internalType": "string[]",
          "name": "_months",
          "type": "string[]"
        }
      ],
      "stateMutability": "nonpayable",
      "type": "constructor"
    },
    {
      "anonymous": false,
      "inputs": [
        {
          "indexed": false,
          "internalType": "address",
          "name": "",
          "type": "address"
        },
        {
          "indexed": false,
          "internalType": "uint256",
          "name": "",
          "type": "uint256"
        }
      ],
      "name": "Fallback",
      "type": "event"
    },
    {
      "anonymous": false,
      "inputs": [
        {
          "indexed": false,
          "internalType": "address",
          "name": "",
          "type": "address"
        },
        {
          "indexed": false,
          "internalType": "uint256",
          "name": "",
          "type": "uint256"
        }
      ],
      "name": "Received",
      "type": "event"
    },
    {
      "stateMutability": "payable",
      "type": "fallback",
      "payable": true
    },
    {
      "inputs": [],
      "name": "MAX_BALANCE",
      "outputs": [
        {
          "internalType": "uint256",
          "name": "",
          "type": "uint256"
        }
      ],
      "stateMutability": "view",
      "type": "function",
      "constant": true
    },
    {
      "inputs": [
        {
          "internalType": "address",
          "name": "seller",
          "type": "address"
        },
        {
          "internalType": "string",
          "name": "month",
          "type": "string"
        }
      ],
      "name": "buy",
      "outputs": [],
      "stateMutability": "payable",
      "type": "function",
      "payable": true
    },
    {
      "inputs": [
        {
          "internalType": "address",
          "name": "owner",
          "type": "address"
        },
        {
          "internalType": "string",
          "name": "month",
          "type": "string"
        }
      ],
      "name": "getBalance",
      "outputs": [
        {
          "internalType": "uint256",
          "name": "",
          "type": "uint256"
        }
      ],
      "stateMutability": "view",
      "type": "function",
      "constant": true
    },
    {
      "inputs": [],
      "name": "getDeposited",
      "outputs": [
        {
          "internalType": "uint256",
          "name": "",
          "type": "uint256"
        }
      ],
      "stateMutability": "view",
      "type": "function",
      "constant": true
    },
    {
      "inputs": [],
      "name": "getMonths",
      "outputs": [
        {
          "internalType": "string[]",
          "name": "",
          "type": "string[]"
        }
      ],
      "stateMutability": "view",
      "type": "function",
      "constant": true
    },
    {
      "inputs": [
        {
          "internalType": "address",
          "name": "owner",
          "type": "address"
        }
      ],
      "name": "getTotalBalance",
      "outputs": [
        {
          "internalType": "uint256",
          "name": "",
          "type": "uint256"
        }
      ],
      "stateMutability": "view",
      "type": "function",
      "constant": true
    },
    {
      "inputs": [],
      "name": "getTotalSupply",
      "outputs": [
        {
          "internalType": "uint256",
          "name": "",
          "type": "uint256"
        }
      ],
      "stateMutability": "view",
      "type": "function",
      "constant": true
    },
    {
      "inputs": [
        {
          "internalType": "uint256",
          "name": "",
          "type": "uint256"
        }
      ],
      "name": "months",
      "outputs": [
        {
          "internalType": "string",
          "name": "",
          "type": "string"
        }
      ],
      "stateMutability": "view",
      "type": "function",
      "constant": true
    },
    {
      "inputs": [
        {
          "internalType": "address",
          "name": "buyer",
          "type": "address"
        },
        {
          "internalType": "string",
          "name": "month",
          "type": "string"
        }
      ],
      "name": "sell",
      "outputs": [],
      "stateMutability": "payable",
      "type": "function",
      "payable": true
    },
    {
      "stateMutability": "payable",
      "type": "receive",
      "payable": true
    },
    {
      "inputs": [
        {
          "internalType": "string",
          "name": "month",
          "type": "string"
        }
      ],
      "name": "getBidPrice",
      "outputs": [
        {
          "internalType": "uint256",
          "name": "",
          "type": "uint256"
        }
      ],
      "stateMutability": "view",
      "type": "function",
      "constant": true
    },
    {
      "inputs": [
        {
          "internalType": "string",
          "name": "month",
          "type": "string"
        }
      ],
      "name": "getSellPrice",
      "outputs": [
        {
          "internalType": "uint256",
          "name": "",
          "type": "uint256"
        }
      ],
      "stateMutability": "view",
      "type": "function",
      "constant": true
    }
  ],
  "bytecode": "0x60806040523480156200001157600080fd5b5060405162000f5e38038062000f5e83398101604081905262000034916200024b565b600080546001600160a01b03191630179055805181906200005d906001906020840190620000e2565b5060005b600154811015620000d957600080546001600160a01b0316815260026020526040812060018054849081106200009b576200009b620004d8565b90600052602060002001604051620000b491906200039a565b9081526040519081900360200190205580620000d081620004ae565b91505062000061565b50505062000504565b82805482825590600052602060002090810192821562000134579160200282015b828111156200013457825180516200012391849160209091019062000146565b509160200191906001019062000103565b5062000142929150620001d1565b5090565b828054620001549062000471565b90600052602060002090601f016020900481019282620001785760008555620001c3565b82601f106200019357805160ff1916838001178555620001c3565b82800160010185558215620001c3579182015b82811115620001c3578251825591602001919060010190620001a6565b5062000142929150620001f2565b8082111562000142576000620001e8828262000209565b50600101620001d1565b5b80821115620001425760008155600101620001f3565b508054620002179062000471565b6000825580601f1062000228575050565b601f016020900490600052602060002090810190620002489190620001f2565b50565b600060208083850312156200025f57600080fd5b82516001600160401b03808211156200027757600080fd5b8185019150601f86818401126200028d57600080fd5b825182811115620002a257620002a2620004ee565b8060051b620002b38682016200043e565b8281528681019086880183880189018c1015620002cf57600080fd5b600093505b848410156200038b57805187811115620002ed57600080fd5b8801603f81018d13620002ff57600080fd5b8981015188811115620003165762000316620004ee565b62000329818901601f19168c016200043e565b81815260408f818486010111156200034057600080fd5b60005b8381101562000360578481018201518382018f01528d0162000343565b83811115620003725760008e85850101525b50508552505060019390930192918801918801620002d4565b509a9950505050505050505050565b600080835481600182811c915080831680620003b757607f831692505b6020808410821415620003d857634e487b7160e01b86526022600452602486fd5b818015620003ef5760018114620004015762000430565b60ff1986168952848901965062000430565b60008a81526020902060005b86811015620004285781548b8201529085019083016200040d565b505084890196505b509498975050505050505050565b604051601f8201601f191681016001600160401b0381118282101715620004695762000469620004ee565b604052919050565b600181811c908216806200048657607f821691505b60208210811415620004a857634e487b7160e01b600052602260045260246000fd5b50919050565b6000600019821415620004d157634e487b7160e01b600052601160045260246000fd5b5060010190565b634e487b7160e01b600052603260045260246000fd5b634e487b7160e01b600052604160045260246000fd5b610a4a80620005146000396000f3fe6080604052600436106100a05760003560e01c8063834518381161006457806383451838146101c65780639b4f19c6146101d9578063c4e41b22146101fb578063d295473214610210578063d3d3819314610231578063def92c6914610251576100e0565b80631387c4fd146101155780631d0205b8146101435780631dd7cecf14610170578063655f272e146101905780636ba02d98146101a5576100e0565b366100e057604080513381523460208201527f88a5966d370b9919b20f3e2c13ff65706f196a4e32cc2c12bf57088f8852587491015b60405180910390a1005b604080513381523460208201527ffbf15a1bae5e021d024841007b692b167afd2a281a4ff0b44f47387eb388205c91016100d6565b34801561012157600080fd5b506000546001600160a01b0316315b6040519081526020015b60405180910390f35b34801561014f57600080fd5b5061016361015e3660046107b1565b610267565b60405161013a9190610910565b34801561017c57600080fd5b5061013061018b366004610726565b610313565b6101a361019e366004610726565b610355565b005b3480156101b157600080fd5b506101306101c0366004610774565b50600190565b6101a36101d4366004610726565b6103ea565b3480156101e557600080fd5b506101ee610475565b60405161013a91906108ae565b34801561020757600080fd5b5061013061054e565b34801561021c57600080fd5b5061013061022b366004610774565b50600290565b34801561023d57600080fd5b5061013061024c366004610704565b6105d4565b34801561025d57600080fd5b506101306103e881565b6001818154811061027757600080fd5b90600052602060002001600091509050805461029290610982565b80601f01602080910402602001604051908101604052809291908181526020018280546102be90610982565b801561030b5780601f106102e05761010080835404028352916020019161030b565b820191906000526020600020905b8154815290600101906020018083116102ee57829003601f168201915b505050505081565b6001600160a01b038216600090815260026020526040808220905182919061033c9085906107f6565b9081526040519081900360200190205491505092915050565b6001600160a01b038216600090815260026020526040908190209051349182916103809085906107f6565b9081526020016040518091039020600082825461039d9190610923565b9091555050336000908152600260205260409081902090518291906103c39085906107f6565b908152602001604051809103902060008282546103e0919061093b565b9091555050505050565b6001600160a01b038216600090815260026020526040908190209051349182916104159085906107f6565b90815260200160405180910390206000828254610432919061093b565b9091555050336000908152600260205260409081902090518291906104589085906107f6565b908152602001604051809103902060008282546103e09190610923565b60606001805480602002602001604051908101604052809291908181526020016000905b828210156105455783829060005260206000200180546104b890610982565b80601f01602080910402602001604051908101604052809291908181526020018280546104e490610982565b80156105315780601f1061050657610100808354040283529160200191610531565b820191906000526020600020905b81548152906001019060200180831161051457829003601f168201915b505050505081526020019060010190610499565b50505050905090565b600080805b6001548110156105ce57600080546001600160a01b031681526002602052604090206001805483908110610589576105896109e8565b906000526020600020016040516105a09190610812565b908152602001604051809103902054826105ba9190610923565b9150806105c6816109b7565b915050610553565b50919050565b600080805b600154811015610654576001600160a01b0384166000908152600260205260409020600180548390811061060f5761060f6109e8565b906000526020600020016040516106269190610812565b908152602001604051809103902054826106409190610923565b91508061064c816109b7565b9150506105d9565b5092915050565b80356001600160a01b038116811461067257600080fd5b919050565b600082601f83011261068857600080fd5b813567ffffffffffffffff808211156106a3576106a36109fe565b604051601f8301601f19908116603f011681019082821181831017156106cb576106cb6109fe565b816040528381528660208588010111156106e457600080fd5b836020870160208301376000602085830101528094505050505092915050565b60006020828403121561071657600080fd5b61071f8261065b565b9392505050565b6000806040838503121561073957600080fd5b6107428361065b565b9150602083013567ffffffffffffffff81111561075e57600080fd5b61076a85828601610677565b9150509250929050565b60006020828403121561078657600080fd5b813567ffffffffffffffff81111561079d57600080fd5b6107a984828501610677565b949350505050565b6000602082840312156107c357600080fd5b5035919050565b600081518084526107e2816020860160208601610952565b601f01601f19169290920160200192915050565b60008251610808818460208701610952565b9190910192915050565b600080835481600182811c91508083168061082e57607f831692505b602080841082141561084e57634e487b7160e01b86526022600452602486fd5b8180156108625760018114610873576108a0565b60ff198616895284890196506108a0565b60008a81526020902060005b868110156108985781548b82015290850190830161087f565b505084890196505b509498975050505050505050565b6000602080830181845280855180835260408601915060408160051b870101925083870160005b8281101561090357603f198886030184526108f18583516107ca565b945092850192908501906001016108d5565b5092979650505050505050565b60208152600061071f60208301846107ca565b60008219821115610936576109366109d2565b500190565b60008282101561094d5761094d6109d2565b500390565b60005b8381101561096d578181015183820152602001610955565b8381111561097c576000848401525b50505050565b600181811c9082168061099657607f821691505b602082108114156105ce57634e487b7160e01b600052602260045260246000fd5b60006000198214156109cb576109cb6109d2565b5060010190565b634e487b7160e01b600052601160045260246000fd5b634e487b7160e01b600052603260045260246000fd5b634e487b7160e01b600052604160045260246000fdfea264697066735822122028822ce98907583f36430beaa89d1e0325f5d257fde07a7d0b38e7436dabfd0664736f6c63430008070033",
  "immutableReferences": {},
  "source": "// SPDX-License-Identifier: MIT\n\npragma solidity ^0.8.7;\n\nimport \"../contracts/CommodityContract.sol\";\n\ncontract CornContract is CommodityContract {\n\n  constructor(string[] memory _months) CommodityContract(_months) {}\n\n  function getBidPrice(string memory month) external view returns (uint256) {\n      return 1;\n  }\n\n  function getSellPrice(string memory month) external view returns (uint256) {\n      return 2;\n  }\n}\n\n/*\ncontract CornContract is VRFConsumerBase, CommodityContract {\n\n  bytes32 private s_keyHash;\n  uint256 private s_fee;\n  mapping(bytes32 => address) private s_rollers;\n  mapping(address => uint256) private s_results;\n\n  // constructor\n  constructor(address vrfCoordinator, address link, bytes32 keyHash, uint256 fee)\n    public\n    VRFConsumerBase(vrfCoordinator, link)\n  {\n    s_keyHash = keyHash;\n    s_fee = fee;\n  }\n\n  // Get Price\n  function rollDice(address roller) public onlyOwner returns (bytes32 requestId) {\n    // checking LINK balance\n    require(LINK.balanceOf(address(this)) >= s_fee, \"Not enough LINK to pay fee\");\n\n    // checking if roller has already rolled die\n    require(s_results[roller] == 0, \"Already rolled\");\n\n    // requesting randomness\n    requestId = requestRandomness(s_keyHash, s_fee);\n\n    // storing requestId and roller address\n    s_rollers[requestId] = roller;\n\n    // emitting event to signal rolling of die\n    s_results[roller] = ROLL_IN_PROGRESS;\n    emit DiceRolled(requestId, roller);\n  }\n\n  function fulfillRandomness(bytes32 requestId, uint256 randomness) internal override {\n    uint256 d20Value = randomness.mod(20).add(1);\n    s_results[s_rollers[requestId]] = d20Value;\n    emit DiceLanded(requestId, d20Value);\n  }\n\n  function house(address player) public view returns (string memory) {\n    require(s_results[player] != 0, \"Dice not rolled\");\n    require(s_results[player] != ROLL_IN_PROGRESS, \"Roll in progress\");\n    return getHouseName(s_results[player]);\n  }\n}\n*/\n",
  "sourcePath": "/Users/jrg5/src/github.com/jrgriffiniii/workspace1/drizzle-tutorials/contracts/CornContract.sol",
  "compiler": {
    "name": "solc",
    "version": "0.8.7+commit.e28d00a7.Emscripten.clang"
  },
  "schemaVersion": "3.4.3",
  "updatedAt": "2022-01-20T09:41:47.705Z",
  "networkType": "ethereum",
  "devdoc": {
    "kind": "dev",
    "methods": {},
    "version": 1
  },
  "userdoc": {
    "kind": "user",
    "methods": {},
    "version": 1
  }
}