{
  "contractName": "CornContract",
  "abi": [
    {
      "anonymous": false,
      "inputs": [
        {
          "indexed": false,
          "internalType": "address",
          "name": "",
          "type": "address"
        },
        {
          "indexed": false,
          "internalType": "uint256",
          "name": "",
          "type": "uint256"
        }
      ],
      "name": "Fallback",
      "type": "event"
    },
    {
      "anonymous": false,
      "inputs": [
        {
          "indexed": false,
          "internalType": "address",
          "name": "",
          "type": "address"
        },
        {
          "indexed": false,
          "internalType": "uint256",
          "name": "",
          "type": "uint256"
        }
      ],
      "name": "Received",
      "type": "event"
    },
    {
      "stateMutability": "payable",
      "type": "fallback",
      "payable": true
    },
    {
      "inputs": [],
      "name": "MAX_BALANCE",
      "outputs": [
        {
          "internalType": "uint256",
          "name": "",
          "type": "uint256"
        }
      ],
      "stateMutability": "view",
      "type": "function",
      "constant": true
    },
    {
      "inputs": [
        {
          "internalType": "address",
          "name": "owner",
          "type": "address"
        }
      ],
      "name": "getBalance",
      "outputs": [
        {
          "internalType": "uint256",
          "name": "",
          "type": "uint256"
        }
      ],
      "stateMutability": "view",
      "type": "function",
      "constant": true
    },
    {
      "inputs": [],
      "name": "getDeposited",
      "outputs": [
        {
          "internalType": "uint256",
          "name": "",
          "type": "uint256"
        }
      ],
      "stateMutability": "view",
      "type": "function",
      "constant": true
    },
    {
      "inputs": [],
      "name": "getSupply",
      "outputs": [
        {
          "internalType": "uint256",
          "name": "",
          "type": "uint256"
        }
      ],
      "stateMutability": "view",
      "type": "function",
      "constant": true
    },
    {
      "inputs": [],
      "name": "purchase",
      "outputs": [],
      "stateMutability": "payable",
      "type": "function",
      "payable": true
    },
    {
      "inputs": [],
      "name": "sell",
      "outputs": [
        {
          "internalType": "uint256",
          "name": "",
          "type": "uint256"
        }
      ],
      "stateMutability": "payable",
      "type": "function",
      "payable": true
    },
    {
      "stateMutability": "payable",
      "type": "receive",
      "payable": true
    }
  ],
  "bytecode": "0x608060405234801561001057600080fd5b50600080546001600160a01b03191630908117825581526001602052604090206103e890556102f1806100446000396000f3fe6080604052600436106100595760003560e01c80631387c4fd146100ce57806345710074146100fb57806364edfbf0146101035780636c9c2faf1461010d578063def92c6914610138578063f8b2cb4f1461014e57610099565b3661009957604080513381523460208201527f88a5966d370b9919b20f3e2c13ff65706f196a4e32cc2c12bf57088f8852587491015b60405180910390a1005b604080513381523460208201527ffbf15a1bae5e021d024841007b692b167afd2a281a4ff0b44f47387eb388205c910161008f565b3480156100da57600080fd5b506000546001600160a01b0316315b60405190815260200160405180910390f35b6100e9610184565b61010b6101eb565b005b34801561011957600080fd5b50600080546001600160a01b03168152600160205260409020546100e9565b34801561014457600080fd5b506100e96103e881565b34801561015a57600080fd5b506100e9610169366004610246565b6001600160a01b031660009081526001602052604090205490565b600080546001600160a01b0316815260016020526040812080543391349182919085906101b2908490610276565b909155505033600090815260016020526040812080548392906101d690849061028e565b9091555050506001600160a01b031631919050565b600080546001600160a01b03168082526001602052604082208054919234928392919061021990849061028e565b9091555050336000908152600160205260408120805483929061023d908490610276565b90915550505050565b60006020828403121561025857600080fd5b81356001600160a01b038116811461026f57600080fd5b9392505050565b60008219821115610289576102896102a5565b500190565b6000828210156102a0576102a06102a5565b500390565b634e487b7160e01b600052601160045260246000fdfea2646970667358221220064429873047f2f3ac61fc0590bcacce30a0869758eed6b5487d264b6fe3c0dd64736f6c63430008070033",
  "immutableReferences": {},
  "source": "// SPDX-License-Identifier: MIT\n\npragma solidity ^0.8.7;\n\nimport \"../contracts/CommodityContract.sol\";\n\ncontract CornContract is CommodityContract {\n\n}\n\n/*\ncontract CornContract is VRFConsumerBase, CommodityContract {\n\n  bytes32 private s_keyHash;\n  uint256 private s_fee;\n  mapping(bytes32 => address) private s_rollers;\n  mapping(address => uint256) private s_results;\n\n  // constructor\n  constructor(address vrfCoordinator, address link, bytes32 keyHash, uint256 fee)\n    public\n    VRFConsumerBase(vrfCoordinator, link)\n  {\n    s_keyHash = keyHash;\n    s_fee = fee;\n  }\n\n  // Get Price\n  function rollDice(address roller) public onlyOwner returns (bytes32 requestId) {\n    // checking LINK balance\n    require(LINK.balanceOf(address(this)) >= s_fee, \"Not enough LINK to pay fee\");\n\n    // checking if roller has already rolled die\n    require(s_results[roller] == 0, \"Already rolled\");\n\n    // requesting randomness\n    requestId = requestRandomness(s_keyHash, s_fee);\n\n    // storing requestId and roller address\n    s_rollers[requestId] = roller;\n\n    // emitting event to signal rolling of die\n    s_results[roller] = ROLL_IN_PROGRESS;\n    emit DiceRolled(requestId, roller);\n  }\n\n  function fulfillRandomness(bytes32 requestId, uint256 randomness) internal override {\n    uint256 d20Value = randomness.mod(20).add(1);\n    s_results[s_rollers[requestId]] = d20Value;\n    emit DiceLanded(requestId, d20Value);\n  }\n\n  function house(address player) public view returns (string memory) {\n    require(s_results[player] != 0, \"Dice not rolled\");\n    require(s_results[player] != ROLL_IN_PROGRESS, \"Roll in progress\");\n    return getHouseName(s_results[player]);\n  }\n}\n*/\n",
  "sourcePath": "/Users/jrg5/src/github.com/jrgriffiniii/workspace1/drizzle-tutorials/contracts/CornContract.sol",
  "compiler": {
    "name": "solc",
    "version": "0.8.7+commit.e28d00a7.Emscripten.clang"
  },
  "schemaVersion": "3.4.3",
  "updatedAt": "2022-01-16T03:44:41.727Z",
  "networkType": "ethereum",
  "devdoc": {
    "kind": "dev",
    "methods": {},
    "version": 1
  },
  "userdoc": {
    "kind": "user",
    "methods": {},
    "version": 1
  }
}