{
  "contractName": "ExchangeToken",
  "abi": [
    {
      "inputs": [],
      "stateMutability": "nonpayable",
      "type": "constructor"
    },
    {
      "anonymous": false,
      "inputs": [
        {
          "indexed": false,
          "internalType": "address",
          "name": "",
          "type": "address"
        },
        {
          "indexed": false,
          "internalType": "uint256",
          "name": "",
          "type": "uint256"
        }
      ],
      "name": "Fallback",
      "type": "event"
    },
    {
      "anonymous": false,
      "inputs": [
        {
          "indexed": false,
          "internalType": "address",
          "name": "",
          "type": "address"
        },
        {
          "indexed": false,
          "internalType": "uint256",
          "name": "",
          "type": "uint256"
        }
      ],
      "name": "Received",
      "type": "event"
    },
    {
      "stateMutability": "payable",
      "type": "fallback",
      "payable": true
    },
    {
      "inputs": [],
      "name": "MAX_BALANCE",
      "outputs": [
        {
          "internalType": "uint256",
          "name": "",
          "type": "uint256"
        }
      ],
      "stateMutability": "view",
      "type": "function",
      "constant": true
    },
    {
      "stateMutability": "payable",
      "type": "receive",
      "payable": true
    },
    {
      "inputs": [],
      "name": "getDeposited",
      "outputs": [
        {
          "internalType": "uint256",
          "name": "",
          "type": "uint256"
        }
      ],
      "stateMutability": "view",
      "type": "function",
      "constant": true
    },
    {
      "inputs": [],
      "name": "getSupply",
      "outputs": [
        {
          "internalType": "uint256",
          "name": "",
          "type": "uint256"
        }
      ],
      "stateMutability": "view",
      "type": "function",
      "constant": true
    },
    {
      "inputs": [
        {
          "internalType": "address",
          "name": "owner",
          "type": "address"
        }
      ],
      "name": "getBalance",
      "outputs": [
        {
          "internalType": "uint256",
          "name": "",
          "type": "uint256"
        }
      ],
      "stateMutability": "view",
      "type": "function",
      "constant": true
    },
    {
      "inputs": [],
      "name": "buy",
      "outputs": [],
      "stateMutability": "payable",
      "type": "function",
      "payable": true
    },
    {
      "inputs": [
        {
          "internalType": "address",
          "name": "seller",
          "type": "address"
        }
      ],
      "name": "sell",
      "outputs": [
        {
          "internalType": "bool",
          "name": "",
          "type": "bool"
        }
      ],
      "stateMutability": "payable",
      "type": "function",
      "payable": true
    }
  ],
  "bytecode": "0x608060405234801561001057600080fd5b50600080546001600160a01b03191630908117825581526001602052604090206103e89055610363806100446000396000f3fe6080604052600436106100595760003560e01c80631387c4fd146100ce5780636c9c2faf146100fc57806394b6f9d414610127578063a6f2ae3a1461014a578063def92c6914610154578063f8b2cb4f1461016a57610099565b3661009957604080513381523460208201527f88a5966d370b9919b20f3e2c13ff65706f196a4e32cc2c12bf57088f8852587491015b60405180910390a1005b604080513381523460208201527ffbf15a1bae5e021d024841007b692b167afd2a281a4ff0b44f47387eb388205c910161008f565b3480156100da57600080fd5b506000546001600160a01b0316315b6040519081526020015b60405180910390f35b34801561010857600080fd5b50600080546001600160a01b03168152600160205260409020546100e9565b61013a6101353660046102b8565b6101a0565b60405190151581526020016100f3565b610152610262565b005b34801561016057600080fd5b506100e96103e881565b34801561017657600080fd5b506100e96101853660046102b8565b6001600160a01b031660009081526001602052604090205490565b600080349050600080846001600160a01b03168360405160006040518083038185875af1925050503d80600081146101f4576040519150601f19603f3d011682016040523d82523d6000602084013e6101f9565b606091505b506001600160a01b038716600090815260016020526040812080549395509193508592610227908490610300565b9091555050600080546001600160a01b0316815260016020526040812080548592906102549084906102e8565b909155509195945050505050565b600080546001600160a01b031681526001602052604081208054349283929161028c908490610300565b909155505033600090815260016020526040812080548392906102b09084906102e8565b909155505050565b6000602082840312156102ca57600080fd5b81356001600160a01b03811681146102e157600080fd5b9392505050565b600082198211156102fb576102fb610317565b500190565b60008282101561031257610312610317565b500390565b634e487b7160e01b600052601160045260246000fdfea26469706673582212209bf708d581c639e630342371e20e3aa83180c6435406b089e24f203219c5881c64736f6c63430008070033",
  "immutableReferences": {},
  "source": "// SPDX-License-Identifier: MIT\n\npragma solidity ^0.8.7;\n\ncontract ExchangeToken {\n    uint256 public constant MAX_BALANCE = 1000;\n\n    address private deployed;\n    mapping(address => uint256) balances;\n\n    event Received(address, uint256);\n    event Fallback(address, uint256);\n\n    constructor() {\n        deployed = address(this);\n        balances[deployed] = MAX_BALANCE;\n    }\n\n    receive() external payable {\n        emit Received(msg.sender, msg.value);\n    }\n\n    fallback() external payable {\n        emit Fallback(msg.sender, msg.value);\n    }\n\n    function getDeposited() external view returns (uint256) {\n        return deployed.balance;\n    }\n\n    function getSupply() external view returns (uint256) {\n        return balances[deployed];\n    }\n\n    function getBalance(address owner) external view returns (uint256) {\n        return balances[owner];\n    }\n\n    function buy() external payable {\n        uint256 amount = msg.value;\n\n        // This must be denominated in Wei\n        //bool sent = seller.send(msg.value);\n        //require(sent, \"Failed to transfer Ether to the exchange account\");\n\n        //require(balances[deployed] - msg.value <= msg.value, \"Not enough tokens available for purchase\");\n        balances[deployed] -= amount;\n        balances[msg.sender] += amount;\n    }\n\n    function sell(address seller) external payable returns (bool) {\n        uint256 amount = msg.value;\n\n        // This must be denominated in Wei\n        //(bool sent, bytes memory data) = seller.call{value: msg.value}(\"\");\n        //bool sent = seller.send(msg.value);\n        //require(sent, \"Failed to transfer Ether to the seller account\");\n        //bool sent = seller.send(msg.value);\n        //seller.call.value(amount).gas(20317)();\n        (bool sent, bytes memory data) = seller.call{value: amount}(\"\");\n\n        //require( balances[deployed] - msg.value <= msg.value, \"Not enough tokens available for the seller account.\" );\n        balances[seller] -= amount;\n        balances[deployed] += amount;\n\n        return sent;\n    }\n}\n",
  "sourcePath": "/Users/jrg5/src/github.com/jrgriffiniii/workspace1/drizzle-tutorials/contracts/ExchangeToken.sol",
  "compiler": {
    "name": "solc",
    "version": "0.8.7+commit.e28d00a7.Emscripten.clang"
  },
  "schemaVersion": "3.4.3",
  "updatedAt": "2022-01-20T09:41:47.699Z",
  "networkType": "ethereum",
  "devdoc": {
    "kind": "dev",
    "methods": {},
    "version": 1
  },
  "userdoc": {
    "kind": "user",
    "methods": {},
    "version": 1
  }
}