{
  "contractName": "GameToken",
  "abi": [
    {
      "inputs": [],
      "stateMutability": "nonpayable",
      "type": "constructor"
    },
    {
      "anonymous": false,
      "inputs": [
        {
          "indexed": false,
          "internalType": "address",
          "name": "",
          "type": "address"
        },
        {
          "indexed": false,
          "internalType": "uint256",
          "name": "",
          "type": "uint256"
        }
      ],
      "name": "Fallback",
      "type": "event"
    },
    {
      "anonymous": false,
      "inputs": [
        {
          "indexed": false,
          "internalType": "address",
          "name": "",
          "type": "address"
        },
        {
          "indexed": false,
          "internalType": "uint256",
          "name": "",
          "type": "uint256"
        }
      ],
      "name": "Received",
      "type": "event"
    },
    {
      "inputs": [],
      "name": "MAX_BALANCE",
      "outputs": [
        {
          "internalType": "uint256",
          "name": "",
          "type": "uint256"
        }
      ],
      "stateMutability": "view",
      "type": "function",
      "constant": true
    },
    {
      "inputs": [],
      "name": "receive",
      "outputs": [],
      "stateMutability": "payable",
      "type": "function",
      "payable": true
    },
    {
      "inputs": [],
      "name": "fallback",
      "outputs": [],
      "stateMutability": "payable",
      "type": "function",
      "payable": true
    },
    {
      "inputs": [],
      "name": "getDeposited",
      "outputs": [
        {
          "internalType": "uint256",
          "name": "",
          "type": "uint256"
        }
      ],
      "stateMutability": "view",
      "type": "function",
      "constant": true
    },
    {
      "inputs": [],
      "name": "getSupply",
      "outputs": [
        {
          "internalType": "uint256",
          "name": "",
          "type": "uint256"
        }
      ],
      "stateMutability": "view",
      "type": "function",
      "constant": true
    },
    {
      "inputs": [
        {
          "internalType": "address",
          "name": "owner",
          "type": "address"
        }
      ],
      "name": "getBalance",
      "outputs": [
        {
          "internalType": "uint256",
          "name": "",
          "type": "uint256"
        }
      ],
      "stateMutability": "view",
      "type": "function",
      "constant": true
    },
    {
      "inputs": [
        {
          "internalType": "address",
          "name": "buyer",
          "type": "address"
        },
        {
          "internalType": "uint256",
          "name": "amount",
          "type": "uint256"
        }
      ],
      "name": "purchase",
      "outputs": [
        {
          "internalType": "bool",
          "name": "sufficient",
          "type": "bool"
        }
      ],
      "stateMutability": "nonpayable",
      "type": "function"
    },
    {
      "inputs": [
        {
          "internalType": "address",
          "name": "seller",
          "type": "address"
        },
        {
          "internalType": "uint256",
          "name": "amount",
          "type": "uint256"
        }
      ],
      "name": "sell",
      "outputs": [
        {
          "internalType": "bool",
          "name": "sufficient",
          "type": "bool"
        }
      ],
      "stateMutability": "nonpayable",
      "type": "function"
    }
  ],
  "bytecode": "0x608060405234801561001057600080fd5b50600080546001600160a01b03191630908117825581526001602052604090206103e890556103d3806100446000396000f3fe60806040526004361061007b5760003560e01c80638de932221161004e5780638de9322214610107578063a3e76c0f14610127578063def92c691461012f578063f8b2cb4f1461014557600080fd5b80631387c4fd14610080578063552079dc146100a25780636c197ff5146100ac5780636c9c2faf146100dc575b600080fd5b34801561008c57600080fd5b50475b6040519081526020015b60405180910390f35b6100aa61017b565b005b3480156100b857600080fd5b506100cc6100c736600461032e565b6101b6565b6040519015158152602001610099565b3480156100e857600080fd5b50600080546001600160a01b031681526001602052604090205461008f565b34801561011357600080fd5b506100cc61012236600461032e565b61023c565b6100aa6102bb565b34801561013b57600080fd5b5061008f6103e881565b34801561015157600080fd5b5061008f61016036600461030c565b6001600160a01b031660009081526001602052604090205490565b604080513381523460208201527ffbf15a1bae5e021d024841007b692b167afd2a281a4ff0b44f47387eb388205c91015b60405180910390a1565b3360009081526001602052604081205481906101d3908490610370565b116101e057506000610236565b600080546001600160a01b031681526001602052604081208054849290610208908490610358565b9091555050336000908152600160205260408120805484929061022c908490610370565b9091555060019150505b92915050565b600080546001600160a01b03168152600160205260408120548190610262908490610370565b1161026f57506000610236565b600080546001600160a01b031681526001602052604081208054849290610297908490610370565b9091555050336000908152600160205260408120805484929061022c908490610358565b604080513381523460208201527f88a5966d370b9919b20f3e2c13ff65706f196a4e32cc2c12bf57088f8852587491016101ac565b80356001600160a01b038116811461030757600080fd5b919050565b60006020828403121561031e57600080fd5b610327826102f0565b9392505050565b6000806040838503121561034157600080fd5b61034a836102f0565b946020939093013593505050565b6000821982111561036b5761036b610387565b500190565b60008282101561038257610382610387565b500390565b634e487b7160e01b600052601160045260246000fdfea264697066735822122040d6201b589646ff35d346a4070ebdd859e717a4cab5eac2d58faee67ffff15764736f6c63430008070033",
  "immutableReferences": {},
  "source": "// SPDX-License-Identifier: MIT\n\npragma solidity ^0.8.7;\n\ncontract GameToken {\n    uint public constant MAX_BALANCE = 1000;\n\n    address private deployed;\n    mapping(address => uint256) balances;\n\n    constructor() public {\n      deployed = address(this);\n      balances[deployed] = MAX_BALANCE;\n    }\n\n    event Received(address, uint);\n\n    function receive() external payable {\n      emit Received(msg.sender, msg.value);\n    }\n\n    event Fallback(address, uint);\n\n    function fallback() external payable {\n      emit Fallback(msg.sender, msg.value);\n    }\n\n    function getDeposited() external view returns (uint256) {\n      return address(this).balance;\n    }\n\n    function getSupply() external view returns (uint) {\n      return balances[deployed];\n    }\n\n    function getBalance(address owner) external view returns (uint) {\n      return balances[owner];\n    }\n\n    function purchase(address buyer, uint amount) public returns(bool sufficient) {\n      if (balances[deployed] - amount <= 0) return false;\n\n      balances[deployed] -= amount;\n      balances[msg.sender] += amount; \n\n      return true;\n    }\n\n    function sell(address seller, uint amount) public returns(bool sufficient) {\n      if (balances[msg.sender] - amount <= 0) return false;\n\n      balances[deployed] += amount;\n      balances[msg.sender] -= amount;\n\n      return true;\n    }\n}\n",
  "sourcePath": "/Users/jrg5/src/github.com/jrgriffiniii/workspace1/drizzle-tutorials/contracts/GameToken.sol",
  "compiler": {
    "name": "solc",
    "version": "0.8.7+commit.e28d00a7.Emscripten.clang"
  },
  "schemaVersion": "3.4.3",
  "updatedAt": "2022-01-08T06:23:03.423Z",
  "networkType": "ethereum",
  "devdoc": {
    "kind": "dev",
    "methods": {},
    "version": 1
  },
  "userdoc": {
    "kind": "user",
    "methods": {},
    "version": 1
  }
}