{
  "contractName": "GameToken",
  "abi": [
    {
      "inputs": [],
      "stateMutability": "nonpayable",
      "type": "constructor"
    },
    {
      "anonymous": false,
      "inputs": [
        {
          "indexed": false,
          "internalType": "address",
          "name": "",
          "type": "address"
        },
        {
          "indexed": false,
          "internalType": "uint256",
          "name": "",
          "type": "uint256"
        }
      ],
      "name": "Fallback",
      "type": "event"
    },
    {
      "anonymous": false,
      "inputs": [
        {
          "indexed": false,
          "internalType": "address",
          "name": "",
          "type": "address"
        },
        {
          "indexed": false,
          "internalType": "uint256",
          "name": "",
          "type": "uint256"
        }
      ],
      "name": "Received",
      "type": "event"
    },
    {
      "inputs": [],
      "name": "receive",
      "outputs": [],
      "stateMutability": "payable",
      "type": "function",
      "payable": true
    },
    {
      "inputs": [],
      "name": "fallback",
      "outputs": [],
      "stateMutability": "payable",
      "type": "function",
      "payable": true
    },
    {
      "inputs": [],
      "name": "getBalance",
      "outputs": [
        {
          "internalType": "uint256",
          "name": "",
          "type": "uint256"
        }
      ],
      "stateMutability": "view",
      "type": "function",
      "constant": true
    }
  ],
  "bytecode": "0x608060405234801561001057600080fd5b503260009081526020819052604090206103e89055610107806100346000396000f3fe60806040526004361060305760003560e01c806312065fe0146035578063552079dc146054578063a3e76c0f14605c575b600080fd5b348015604057600080fd5b504760405190815260200160405180910390f35b605a6062565b005b605a609d565b604080513381523460208201527ffbf15a1bae5e021d024841007b692b167afd2a281a4ff0b44f47387eb388205c91015b60405180910390a1565b604080513381523460208201527f88a5966d370b9919b20f3e2c13ff65706f196a4e32cc2c12bf57088f885258749101609356fea2646970667358221220178e1d4b34dcfa9bfc4227c62d5c39184db6b7d3309959130c5fe8ff59af48db64736f6c63430008070033",
  "immutableReferences": {},
  "source": "// SPDX-License-Identifier: MIT\n\npragma solidity ^0.8.7;\n\ncontract GameToken {\n    mapping(address => uint256) balances;\n\n    constructor() public {\n      balances[tx.origin] = 1000;\n    }\n\n    event Received(address, uint);\n\n    function receive() external payable {\n      emit Received(msg.sender, msg.value);\n    }\n\n    event Fallback(address, uint);\n\n    function fallback() external payable {\n      emit Fallback(msg.sender, msg.value);\n    }\n\n    function getBalance() external view returns (uint256) {\n      return address(this).balance;\n    }\n}\n",
  "sourcePath": "/Users/jrg5/src/github.com/jrgriffiniii/workspace1/drizzle-tutorials/contracts/GameToken.sol",
  "compiler": {
    "name": "solc",
    "version": "0.8.7+commit.e28d00a7.Emscripten.clang"
  },
  "schemaVersion": "3.4.3",
  "updatedAt": "2022-01-07T05:16:59.991Z",
  "networkType": "ethereum",
  "devdoc": {
    "kind": "dev",
    "methods": {},
    "version": 1
  },
  "userdoc": {
    "kind": "user",
    "methods": {},
    "version": 1
  }
}