{
  "contractName": "GameToken",
  "abi": [
    {
      "inputs": [],
      "stateMutability": "nonpayable",
      "type": "constructor"
    },
    {
      "inputs": [
        {
          "internalType": "address",
          "name": "addr",
          "type": "address"
        }
      ],
      "name": "getBalance",
      "outputs": [
        {
          "internalType": "uint256",
          "name": "",
          "type": "uint256"
        }
      ],
      "stateMutability": "view",
      "type": "function",
      "constant": true
    }
  ],
  "bytecode": "0x608060405234801561001057600080fd5b503260009081526020819052604090206064905560c9806100326000396000f3fe6080604052348015600f57600080fd5b506004361060285760003560e01c8063f8b2cb4f14602d575b600080fd5b605360383660046065565b6001600160a01b031660009081526020819052604090205490565b60405190815260200160405180910390f35b600060208284031215607657600080fd5b81356001600160a01b0381168114608c57600080fd5b939250505056fea2646970667358221220b896b62350c2a88f10121eab54fa9bef1f63b6037f89120b300b9e739c50b5a764736f6c63430008070033",
  "immutableReferences": {},
  "source": "// SPDX-License-Identifier: MIT\n\npragma solidity ^0.8.7;\n\ncontract GameToken {\n  mapping(address => uint256) balances;\n\n  constructor() public {\n    balances[tx.origin] = 100;\n  }\n\n  function getBalance(address addr) public view returns (uint256) {\n    return balances[addr];\n  }\n}\n",
  "sourcePath": "/Users/jrg5/src/github.com/jrgriffiniii/workspace1/drizzle-tutorials/contracts/GameToken.sol",
  "compiler": {
    "name": "solc",
    "version": "0.8.7+commit.e28d00a7.Emscripten.clang"
  },
  "schemaVersion": "3.4.3",
  "updatedAt": "2022-01-01T21:26:31.136Z",
  "networkType": "ethereum",
  "devdoc": {
    "kind": "dev",
    "methods": {},
    "version": 1
  },
  "userdoc": {
    "kind": "user",
    "methods": {},
    "version": 1
  }
}