{
  "contractName": "GameToken",
  "abi": [
    {
      "inputs": [],
      "stateMutability": "nonpayable",
      "type": "constructor"
    },
    {
      "anonymous": false,
      "inputs": [
        {
          "indexed": false,
          "internalType": "address",
          "name": "",
          "type": "address"
        },
        {
          "indexed": false,
          "internalType": "uint256",
          "name": "",
          "type": "uint256"
        }
      ],
      "name": "Fallback",
      "type": "event"
    },
    {
      "anonymous": false,
      "inputs": [
        {
          "indexed": false,
          "internalType": "address",
          "name": "",
          "type": "address"
        },
        {
          "indexed": false,
          "internalType": "uint256",
          "name": "",
          "type": "uint256"
        }
      ],
      "name": "Received",
      "type": "event"
    },
    {
      "inputs": [],
      "name": "MAX_BALANCE",
      "outputs": [
        {
          "internalType": "uint256",
          "name": "",
          "type": "uint256"
        }
      ],
      "stateMutability": "view",
      "type": "function",
      "constant": true
    },
    {
      "inputs": [],
      "name": "receive",
      "outputs": [],
      "stateMutability": "payable",
      "type": "function",
      "payable": true
    },
    {
      "inputs": [],
      "name": "fallback",
      "outputs": [],
      "stateMutability": "payable",
      "type": "function",
      "payable": true
    },
    {
      "inputs": [],
      "name": "getDeposited",
      "outputs": [
        {
          "internalType": "uint256",
          "name": "",
          "type": "uint256"
        }
      ],
      "stateMutability": "view",
      "type": "function",
      "constant": true
    },
    {
      "inputs": [
        {
          "internalType": "address",
          "name": "owner",
          "type": "address"
        }
      ],
      "name": "getBalance",
      "outputs": [
        {
          "internalType": "uint256",
          "name": "",
          "type": "uint256"
        }
      ],
      "stateMutability": "view",
      "type": "function",
      "constant": true
    },
    {
      "inputs": [
        {
          "internalType": "address",
          "name": "buyer",
          "type": "address"
        },
        {
          "internalType": "uint256",
          "name": "amount",
          "type": "uint256"
        }
      ],
      "name": "sell",
      "outputs": [
        {
          "internalType": "bool",
          "name": "sufficient",
          "type": "bool"
        }
      ],
      "stateMutability": "nonpayable",
      "type": "function"
    }
  ],
  "bytecode": "0x608060405234801561001057600080fd5b503260009081526020819052604090206103e890556102d8806100346000396000f3fe6080604052600436106100555760003560e01c80631387c4fd1461005a578063552079dc1461007c5780636c197ff514610086578063a3e76c0f146100b6578063def92c69146100be578063f8b2cb4f146100d4575b600080fd5b34801561006657600080fd5b50475b6040519081526020015b60405180910390f35b61008461010a565b005b34801561009257600080fd5b506100a66100a1366004610233565b610145565b6040519015158152602001610073565b6100846101c0565b3480156100ca57600080fd5b506100696103e881565b3480156100e057600080fd5b506100696100ef366004610211565b6001600160a01b031660009081526020819052604090205490565b604080513381523460208201527ffbf15a1bae5e021d024841007b692b167afd2a281a4ff0b44f47387eb388205c91015b60405180910390a1565b33600090815260208190526040812054821115610164575060006101ba565b3360009081526020819052604081208054849290610183908490610275565b90915550506001600160a01b038316600090815260208190526040812080548492906101b090849061025d565b9091555060019150505b92915050565b604080513381523460208201527f88a5966d370b9919b20f3e2c13ff65706f196a4e32cc2c12bf57088f88525874910161013b565b80356001600160a01b038116811461020c57600080fd5b919050565b60006020828403121561022357600080fd5b61022c826101f5565b9392505050565b6000806040838503121561024657600080fd5b61024f836101f5565b946020939093013593505050565b600082198211156102705761027061028c565b500190565b6000828210156102875761028761028c565b500390565b634e487b7160e01b600052601160045260246000fdfea2646970667358221220fb2afc5a8517be2aaa41c7fccb8cb2dc7064c33efa5708bc25417f7da88627d464736f6c63430008070033",
  "immutableReferences": {},
  "source": "// SPDX-License-Identifier: MIT\n\npragma solidity ^0.8.7;\n\ncontract GameToken {\n    uint public constant MAX_BALANCE = 1000;\n    mapping(address => uint256) balances;\n\n    constructor() public {\n      balances[tx.origin] = MAX_BALANCE;\n    }\n\n    event Received(address, uint);\n\n    function receive() external payable {\n      emit Received(msg.sender, msg.value);\n    }\n\n    event Fallback(address, uint);\n\n    function fallback() external payable {\n      emit Fallback(msg.sender, msg.value);\n    }\n\n    function getDeposited() external view returns (uint256) {\n      return address(this).balance;\n    }\n\n    function getBalance(address owner) external view returns (uint) {\n      return balances[owner];\n    }\n\n    function sell(address buyer, uint amount) public returns(bool sufficient) {\n      if (balances[msg.sender] < amount) return false;\n      balances[msg.sender] -= amount;\n\n      balances[buyer] += amount;\n      return true;\n    }\n}\n",
  "sourcePath": "/Users/jrg5/src/github.com/jrgriffiniii/workspace1/drizzle-tutorials/contracts/GameToken.sol",
  "compiler": {
    "name": "solc",
    "version": "0.8.7+commit.e28d00a7.Emscripten.clang"
  },
  "schemaVersion": "3.4.3",
  "updatedAt": "2022-01-08T00:38:49.643Z",
  "networkType": "ethereum",
  "devdoc": {
    "kind": "dev",
    "methods": {},
    "version": 1
  },
  "userdoc": {
    "kind": "user",
    "methods": {},
    "version": 1
  }
}