{
  "contractName": "GameToken",
  "abi": [
    {
      "inputs": [],
      "stateMutability": "nonpayable",
      "type": "constructor"
    },
    {
      "anonymous": false,
      "inputs": [
        {
          "indexed": false,
          "internalType": "address",
          "name": "",
          "type": "address"
        },
        {
          "indexed": false,
          "internalType": "uint256",
          "name": "",
          "type": "uint256"
        }
      ],
      "name": "Fallback",
      "type": "event"
    },
    {
      "anonymous": false,
      "inputs": [
        {
          "indexed": false,
          "internalType": "address",
          "name": "",
          "type": "address"
        },
        {
          "indexed": false,
          "internalType": "uint256",
          "name": "",
          "type": "uint256"
        }
      ],
      "name": "Received",
      "type": "event"
    },
    {
      "inputs": [],
      "name": "MAX_BALANCE",
      "outputs": [
        {
          "internalType": "uint256",
          "name": "",
          "type": "uint256"
        }
      ],
      "stateMutability": "view",
      "type": "function",
      "constant": true
    },
    {
      "inputs": [],
      "name": "receive",
      "outputs": [],
      "stateMutability": "payable",
      "type": "function",
      "payable": true
    },
    {
      "inputs": [],
      "name": "fallback",
      "outputs": [],
      "stateMutability": "payable",
      "type": "function",
      "payable": true
    },
    {
      "inputs": [],
      "name": "getDeposited",
      "outputs": [
        {
          "internalType": "uint256",
          "name": "",
          "type": "uint256"
        }
      ],
      "stateMutability": "view",
      "type": "function",
      "constant": true
    },
    {
      "inputs": [],
      "name": "getSupply",
      "outputs": [
        {
          "internalType": "uint256",
          "name": "",
          "type": "uint256"
        }
      ],
      "stateMutability": "view",
      "type": "function",
      "constant": true
    },
    {
      "inputs": [
        {
          "internalType": "address",
          "name": "owner",
          "type": "address"
        }
      ],
      "name": "getBalance",
      "outputs": [
        {
          "internalType": "uint256",
          "name": "",
          "type": "uint256"
        }
      ],
      "stateMutability": "view",
      "type": "function",
      "constant": true
    },
    {
      "inputs": [],
      "name": "purchase",
      "outputs": [],
      "stateMutability": "payable",
      "type": "function",
      "payable": true
    },
    {
      "inputs": [],
      "name": "sell",
      "outputs": [],
      "stateMutability": "payable",
      "type": "function",
      "payable": true
    }
  ],
  "bytecode": "0x608060405234801561001057600080fd5b50600080546001600160a01b03191630908117825581526001602052604090206103e8905561047e806100446000396000f3fe60806040526004361061007b5760003560e01c80636c9c2faf1161004e5780636c9c2faf146100c7578063a3e76c0f146100f2578063def92c69146100fa578063f8b2cb4f1461011057600080fd5b80631387c4fd1461008057806345710074146100ad578063552079dc146100b757806364edfbf0146100bf575b600080fd5b34801561008c57600080fd5b506000546001600160a01b0316315b60405190815260200160405180910390f35b6100b5610146565b005b6100b5610255565b6100b5610290565b3480156100d357600080fd5b50600080546001600160a01b031681526001602052604090205461009b565b6100b561039e565b34801561010657600080fd5b5061009b6103e881565b34801561011c57600080fd5b5061009b61012b3660046103d3565b6001600160a01b031660009081526001602052604090205490565b60405133906000908190839034908381818185875af1925050503d806000811461018c576040519150601f19603f3d011682016040523d82523d6000602084013e610191565b606091505b5091509150816101ff5760405162461bcd60e51b815260206004820152602e60248201527f4661696c656420746f207472616e7366657220457468657220746f207468652060448201526d1cd95b1b195c881858d8dbdd5b9d60921b60648201526084015b60405180910390fd5b600080546001600160a01b031681526001602052604081208054349290610227908490610403565b9091555050336000908152600160205260408120805434929061024b90849061041b565b9091555050505050565b604080513381523460208201527ffbf15a1bae5e021d024841007b692b167afd2a281a4ff0b44f47387eb388205c91015b60405180910390a1565b600080546040516001600160a01b0390911691908190839034908381818185875af1925050503d80600081146102e2576040519150601f19603f3d011682016040523d82523d6000602084013e6102e7565b606091505b5091509150816103525760405162461bcd60e51b815260206004820152603060248201527f4661696c656420746f207472616e7366657220457468657220746f207468652060448201526f195e18da185b99d9481858d8dbdd5b9d60821b60648201526084016101f6565b600080546001600160a01b03168152600160205260408120805434929061037a90849061041b565b9091555050336000908152600160205260408120805434929061024b908490610403565b604080513381523460208201527f88a5966d370b9919b20f3e2c13ff65706f196a4e32cc2c12bf57088f885258749101610286565b6000602082840312156103e557600080fd5b81356001600160a01b03811681146103fc57600080fd5b9392505050565b6000821982111561041657610416610432565b500190565b60008282101561042d5761042d610432565b500390565b634e487b7160e01b600052601160045260246000fdfea264697066735822122066ad4bcfc19544c160c66bb7665b49214f0dc33ca3656fa3e779917731c042e064736f6c63430008070033",
  "immutableReferences": {},
  "source": "// SPDX-License-Identifier: MIT\n\npragma solidity ^0.8.7;\n\ncontract GameToken {\n    uint public constant MAX_BALANCE = 1000;\n\n    address private deployed;\n    mapping(address => uint256) balances;\n\n    constructor() public {\n      deployed = address(this);\n      balances[deployed] = MAX_BALANCE;\n    }\n\n    event Received(address, uint);\n\n    function receive() external payable {\n      /*\n      address payable seller = payable(deployed);\n      (bool sent, bytes memory data) = seller.call{value: msg.value}(\"\");\n      */\n\n      //require(sent, \"Failed to transfer Ether to the exchange account\");\n\n      //require(  balances[deployed] - msg.value <= msg.value, \"Not enough tokens available for purchase\" );\n      /*\n      balances[deployed] -= msg.value;\n      balances[msg.sender] += msg.value; \n      */\n\n      emit Received(msg.sender, msg.value);\n    }\n\n    event Fallback(address, uint);\n\n    function fallback() external payable {\n      /*\n      address payable seller = payable(deployed);\n      (bool sent, bytes memory data) = seller.call{value: msg.value}(\"\");\n\n      require(sent, \"Failed to transfer Ether to the exchange account\");\n\n      require(  balances[deployed] - msg.value <= msg.value, \"Not enough tokens available for purchase\" );\n      balances[deployed] += msg.value;\n\n      balances[deployed] -= msg.value;\n      balances[msg.sender] += msg.value; \n      */\n\n      emit Fallback(msg.sender, msg.value);\n    }\n\n    function getDeposited() external view returns (uint256) {\n      return deployed.balance;\n    }\n\n    function getSupply() external view returns (uint) {\n      return balances[deployed];\n    }\n\n    function getBalance(address owner) external view returns (uint) {\n      return balances[owner];\n    }\n\n    function purchase() external payable {\n      address payable seller = payable(deployed);\n      (bool sent, bytes memory data) = seller.call{value: msg.value}(\"\");\n      require(sent, \"Failed to transfer Ether to the exchange account\");\n\n      //require(  balances[deployed] - msg.value <= msg.value, \"Not enough tokens available for purchase\" );\n      balances[deployed] -= msg.value;\n      balances[msg.sender] += msg.value; \n    }\n\n    function sell() public payable {\n      address payable seller = payable(msg.sender);\n      (bool sent, bytes memory data) = seller.call{value: msg.value}(\"\");\n      require(sent, \"Failed to transfer Ether to the seller account\");\n\n      //require( balances[deployed] - msg.value <= msg.value, \"Not enough tokens available for the seller account.\" );\n      balances[deployed] += msg.value;\n      balances[msg.sender] -= msg.value;\n    }\n}\n",
  "sourcePath": "/Users/jrg5/src/github.com/jrgriffiniii/workspace1/drizzle-tutorials/contracts/GameToken.sol",
  "compiler": {
    "name": "solc",
    "version": "0.8.7+commit.e28d00a7.Emscripten.clang"
  },
  "schemaVersion": "3.4.3",
  "updatedAt": "2022-01-08T21:23:53.789Z",
  "networkType": "ethereum",
  "devdoc": {
    "kind": "dev",
    "methods": {},
    "version": 1
  },
  "userdoc": {
    "kind": "user",
    "methods": {},
    "version": 1
  }
}