{
  "contractName": "MarketToken",
  "abi": [
    {
      "inputs": [],
      "stateMutability": "nonpayable",
      "type": "constructor"
    },
    {
      "anonymous": false,
      "inputs": [
        {
          "indexed": false,
          "internalType": "address",
          "name": "",
          "type": "address"
        },
        {
          "indexed": false,
          "internalType": "uint256",
          "name": "",
          "type": "uint256"
        }
      ],
      "name": "Fallback",
      "type": "event"
    },
    {
      "anonymous": false,
      "inputs": [
        {
          "indexed": false,
          "internalType": "address",
          "name": "",
          "type": "address"
        },
        {
          "indexed": false,
          "internalType": "uint256",
          "name": "",
          "type": "uint256"
        }
      ],
      "name": "Received",
      "type": "event"
    },
    {
      "stateMutability": "payable",
      "type": "fallback",
      "payable": true
    },
    {
      "inputs": [],
      "name": "MAX_BALANCE",
      "outputs": [
        {
          "internalType": "uint256",
          "name": "",
          "type": "uint256"
        }
      ],
      "stateMutability": "view",
      "type": "function",
      "constant": true
    },
    {
      "stateMutability": "payable",
      "type": "receive",
      "payable": true
    },
    {
      "inputs": [],
      "name": "getDeposited",
      "outputs": [
        {
          "internalType": "uint256",
          "name": "",
          "type": "uint256"
        }
      ],
      "stateMutability": "view",
      "type": "function",
      "constant": true
    },
    {
      "inputs": [],
      "name": "getSupply",
      "outputs": [
        {
          "internalType": "uint256",
          "name": "",
          "type": "uint256"
        }
      ],
      "stateMutability": "view",
      "type": "function",
      "constant": true
    },
    {
      "inputs": [
        {
          "internalType": "address",
          "name": "owner",
          "type": "address"
        }
      ],
      "name": "getBalance",
      "outputs": [
        {
          "internalType": "uint256",
          "name": "",
          "type": "uint256"
        }
      ],
      "stateMutability": "view",
      "type": "function",
      "constant": true
    },
    {
      "inputs": [],
      "name": "purchase",
      "outputs": [],
      "stateMutability": "payable",
      "type": "function",
      "payable": true
    },
    {
      "inputs": [],
      "name": "sell",
      "outputs": [
        {
          "internalType": "uint256",
          "name": "",
          "type": "uint256"
        }
      ],
      "stateMutability": "payable",
      "type": "function",
      "payable": true
    }
  ],
  "bytecode": "0x608060405234801561001057600080fd5b50600080546001600160a01b03191630908117825581526001602052604090206103e890556102f1806100446000396000f3fe6080604052600436106100595760003560e01c80631387c4fd146100ce57806345710074146100fb57806364edfbf0146101035780636c9c2faf1461010d578063def92c6914610138578063f8b2cb4f1461014e57610099565b3661009957604080513381523460208201527f88a5966d370b9919b20f3e2c13ff65706f196a4e32cc2c12bf57088f8852587491015b60405180910390a1005b604080513381523460208201527ffbf15a1bae5e021d024841007b692b167afd2a281a4ff0b44f47387eb388205c910161008f565b3480156100da57600080fd5b506000546001600160a01b0316315b60405190815260200160405180910390f35b6100e9610184565b61010b6101eb565b005b34801561011957600080fd5b50600080546001600160a01b03168152600160205260409020546100e9565b34801561014457600080fd5b506100e96103e881565b34801561015a57600080fd5b506100e9610169366004610246565b6001600160a01b031660009081526001602052604090205490565b600080546001600160a01b0316815260016020526040812080543391349182919085906101b2908490610276565b909155505033600090815260016020526040812080548392906101d690849061028e565b9091555050506001600160a01b031631919050565b600080546001600160a01b03168082526001602052604082208054919234928392919061021990849061028e565b9091555050336000908152600160205260408120805483929061023d908490610276565b90915550505050565b60006020828403121561025857600080fd5b81356001600160a01b038116811461026f57600080fd5b9392505050565b60008219821115610289576102896102a5565b500190565b6000828210156102a0576102a06102a5565b500390565b634e487b7160e01b600052601160045260246000fdfea26469706673582212200710f18a83de0be4ff9ed8d14552af5a41c36a0ff69d46172a33536f24fe691964736f6c63430008070033",
  "immutableReferences": {},
  "source": "// SPDX-License-Identifier: MIT\n\npragma solidity ^0.8.7;\n\ncontract MarketToken {\n    uint256 public constant MAX_BALANCE = 1000;\n\n    address private deployed;\n    mapping(address => uint256) balances;\n\n    event Received(address, uint256);\n    event Fallback(address, uint256);\n\n    constructor() public {\n        deployed = address(this);\n        balances[deployed] = MAX_BALANCE;\n    }\n\n    receive() external payable {\n        emit Received(msg.sender, msg.value);\n    }\n\n    fallback() external payable {\n        emit Fallback(msg.sender, msg.value);\n    }\n\n    function getDeposited() external view returns (uint256) {\n        return deployed.balance;\n    }\n\n    function getSupply() external view returns (uint256) {\n        return balances[deployed];\n    }\n\n    function getBalance(address owner) external view returns (uint256) {\n        return balances[owner];\n    }\n\n    function purchase() external payable {\n        address payable seller = payable(deployed);\n        uint256 amount = msg.value;\n\n        // This must be denominated in Wei\n        //bool sent = seller.send(msg.value);\n        //require(sent, \"Failed to transfer Ether to the exchange account\");\n\n        //require(balances[deployed] - msg.value <= msg.value, \"Not enough tokens available for purchase\");\n        balances[deployed] -= amount;\n        balances[msg.sender] += amount;\n    }\n\n    function sell() external payable returns (uint256) {\n        address payable seller = payable(msg.sender);\n        uint256 amount = msg.value;\n\n        // This must be denominated in Wei\n        //(bool sent, bytes memory data) = seller.call{value: msg.value}(\"\");\n        //bool sent = seller.send(msg.value);\n        //require(sent, \"Failed to transfer Ether to the seller account\");\n\n        //require( balances[deployed] - msg.value <= msg.value, \"Not enough tokens available for the seller account.\" );\n        balances[deployed] += amount;\n        balances[msg.sender] -= amount;\n\n        return seller.balance;\n    }\n}\n",
  "sourcePath": "/Users/jrg5/src/github.com/jrgriffiniii/workspace1/drizzle-tutorials/contracts/GameToken.sol",
  "compiler": {
    "name": "solc",
    "version": "0.8.7+commit.e28d00a7.Emscripten.clang"
  },
  "schemaVersion": "3.4.3",
  "updatedAt": "2022-01-16T03:44:41.721Z",
  "networkType": "ethereum",
  "devdoc": {
    "kind": "dev",
    "methods": {},
    "version": 1
  },
  "userdoc": {
    "kind": "user",
    "methods": {},
    "version": 1
  }
}